{
  "contractName": "BattlesNBlocks",
  "abi": [
    {
      "constant": true,
      "inputs": [
        {
          "name": "",
          "type": "address"
        }
      ],
      "name": "heroes",
      "outputs": [
        {
          "name": "name",
          "type": "string"
        },
        {
          "name": "position",
          "type": "uint256"
        },
        {
          "name": "strength",
          "type": "uint256"
        },
        {
          "name": "dexterity",
          "type": "uint256"
        },
        {
          "name": "resistance",
          "type": "uint256"
        },
        {
          "name": "magic",
          "type": "uint256"
        }
      ],
      "payable": false,
      "stateMutability": "view",
      "type": "function"
    },
    {
      "constant": true,
      "inputs": [],
      "name": "owner",
      "outputs": [
        {
          "name": "",
          "type": "address"
        }
      ],
      "payable": false,
      "stateMutability": "view",
      "type": "function"
    },
    {
      "constant": false,
      "inputs": [
        {
          "name": "newOwner",
          "type": "address"
        }
      ],
      "name": "changeOwner",
      "outputs": [],
      "payable": false,
      "stateMutability": "nonpayable",
      "type": "function"
    },
    {
      "inputs": [],
      "payable": false,
      "stateMutability": "nonpayable",
      "type": "constructor"
    },
    {
      "anonymous": false,
      "inputs": [
        {
          "indexed": false,
          "name": "sender",
          "type": "address"
        },
        {
          "indexed": false,
          "name": "name",
          "type": "string"
        },
        {
          "indexed": false,
          "name": "position",
          "type": "uint256"
        },
        {
          "indexed": false,
          "name": "strength",
          "type": "uint256"
        },
        {
          "indexed": false,
          "name": "dexterity",
          "type": "uint256"
        }
      ],
      "name": "LogNewHero",
      "type": "event"
    },
    {
      "anonymous": false,
      "inputs": [
        {
          "indexed": false,
          "name": "sender",
          "type": "address"
        },
        {
          "indexed": false,
          "name": "name",
          "type": "string"
        },
        {
          "indexed": false,
          "name": "position",
          "type": "uint256"
        }
      ],
      "name": "LogUpdateHero",
      "type": "event"
    },
    {
      "anonymous": false,
      "inputs": [
        {
          "indexed": false,
          "name": "key",
          "type": "address"
        }
      ],
      "name": "LogRemHero",
      "type": "event"
    },
    {
      "anonymous": false,
      "inputs": [
        {
          "indexed": false,
          "name": "sender",
          "type": "address"
        },
        {
          "indexed": false,
          "name": "newOwner",
          "type": "address"
        }
      ],
      "name": "LogNewOwner",
      "type": "event"
    },
    {
      "constant": false,
      "inputs": [
        {
          "name": "name",
          "type": "string"
        },
        {
          "name": "strength",
          "type": "uint256"
        },
        {
          "name": "dexterity",
          "type": "uint256"
        },
        {
          "name": "resistance",
          "type": "uint256"
        },
        {
          "name": "magic",
          "type": "uint256"
        }
      ],
      "name": "newHero",
      "outputs": [],
      "payable": true,
      "stateMutability": "payable",
      "type": "function"
    },
    {
      "constant": false,
      "inputs": [
        {
          "name": "name",
          "type": "string"
        }
      ],
      "name": "updateHero",
      "outputs": [],
      "payable": false,
      "stateMutability": "nonpayable",
      "type": "function"
    },
    {
      "constant": false,
      "inputs": [
        {
          "name": "key",
          "type": "address"
        }
      ],
      "name": "remHero",
      "outputs": [],
      "payable": false,
      "stateMutability": "nonpayable",
      "type": "function"
    },
    {
      "constant": true,
      "inputs": [
        {
          "name": "key",
          "type": "address"
        }
      ],
      "name": "getHero",
      "outputs": [
        {
          "name": "name",
          "type": "string"
        },
        {
          "name": "position",
          "type": "uint256"
        }
      ],
      "payable": false,
      "stateMutability": "view",
      "type": "function"
    },
    {
      "constant": true,
      "inputs": [],
      "name": "getHeroCount",
      "outputs": [
        {
          "name": "count",
          "type": "uint256"
        }
      ],
      "payable": false,
      "stateMutability": "view",
      "type": "function"
    },
    {
      "constant": true,
      "inputs": [
        {
          "name": "index",
          "type": "uint256"
        }
      ],
      "name": "getHeroAtIndex",
      "outputs": [
        {
          "name": "key",
          "type": "address"
        }
      ],
      "payable": false,
      "stateMutability": "view",
      "type": "function"
    }
  ],
  "bytecode": "0x608060405234801561001057600080fd5b50336000806101000a81548173ffffffffffffffffffffffffffffffffffffffff021916908373ffffffffffffffffffffffffffffffffffffffff16021790555033600160006101000a81548173ffffffffffffffffffffffffffffffffffffffff021916908373ffffffffffffffffffffffffffffffffffffffff160217905550611845806100a16000396000f3fe608060405260043610610093576000357c010000000000000000000000000000000000000000000000000000000090048063219a35e21461009857806327df259a14610160578063378097e61461023157806377548382146102825780637f026d76146102ad57806386006cb41461039a5780638da5cb5b1461047d578063989fede9146104d4578063a6f9dae11461054f575b600080fd5b3480156100a457600080fd5b5061015e600480360360208110156100bb57600080fd5b81019080803590602001906401000000008111156100d857600080fd5b8201836020820111156100ea57600080fd5b8035906020019184600183028401116401000000008311171561010c57600080fd5b91908080601f016020809104026020016040519081016040528093929190818152602001838380828437600081840152601f19601f8201169050808301925050505050505091929192905050506105a0565b005b34801561016c57600080fd5b506101af6004803603602081101561018357600080fd5b81019080803573ffffffffffffffffffffffffffffffffffffffff1690602001909291905050506107b3565b6040518080602001838152602001828103825284818151815260200191508051906020019080838360005b838110156101f55780820151818401526020810190506101da565b50505050905090810190601f1680156102225780820380516001836020036101000a031916815260200191505b50935050505060405180910390f35b34801561023d57600080fd5b506102806004803603602081101561025457600080fd5b81019080803573ffffffffffffffffffffffffffffffffffffffff169060200190929190505050610957565b005b34801561028e57600080fd5b50610297610aa6565b6040518082815260200191505060405180910390f35b3480156102b957600080fd5b506102fc600480360360208110156102d057600080fd5b81019080803573ffffffffffffffffffffffffffffffffffffffff169060200190929190505050610ab7565b6040518080602001878152602001868152602001858152602001848152602001838152602001828103825288818151815260200191508051906020019080838360005b8381101561035a57808201518184015260208101905061033f565b50505050905090810190601f1680156103875780820380516001836020036101000a031916815260200191505b5097505050505050505060405180910390f35b61047b600480360360a08110156103b057600080fd5b81019080803590602001906401000000008111156103cd57600080fd5b8201836020820111156103df57600080fd5b8035906020019184600183028401116401000000008311171561040157600080fd5b91908080601f016020809104026020016040519081016040528093929190818152602001838380828437600081840152601f19601f82011690508083019250505050505050919291929080359060200190929190803590602001909291908035906020019092919080359060200190929190505050610b8b565b005b34801561048957600080fd5b506104926110d7565b604051808273ffffffffffffffffffffffffffffffffffffffff1673ffffffffffffffffffffffffffffffffffffffff16815260200191505060405180910390f35b3480156104e057600080fd5b5061050d600480360360208110156104f757600080fd5b81019080803590602001909291905050506110fd565b604051808273ffffffffffffffffffffffffffffffffffffffff1673ffffffffffffffffffffffffffffffffffffffff16815260200191505060405180910390f35b34801561055b57600080fd5b5061059e6004803603602081101561057257600080fd5b81019080803573ffffffffffffffffffffffffffffffffffffffff16906020019092919050505061111a565b005b6105b433600261124b90919063ffffffff16565b151561064e576040517f08c379a00000000000000000000000000000000000000000000000000000000081526004018080602001828103825260278152602001807f43616e2774207570646174652061204865726f207468617420646f65736e277481526020017f2065786973742e0000000000000000000000000000000000000000000000000081525060400191505060405180910390fd5b6000600460003373ffffffffffffffffffffffffffffffffffffffff1673ffffffffffffffffffffffffffffffffffffffff1681526020019081526020016000209050818160000190805190602001906106a9929190611700565b504381600101819055507fa00c1361386c273066814e3eeebbbe9409bb323764055a7db5f95de5d37d989e33826000018360010154604051808473ffffffffffffffffffffffffffffffffffffffff1673ffffffffffffffffffffffffffffffffffffffff1681526020018060200183815260200182810382528481815460018160011615610100020316600290048152602001915080546001816001161561010002031660029004801561079f5780601f106107745761010080835404028352916020019161079f565b820191906000526020600020905b81548152906001019060200180831161078257829003601f168201915b505094505050505060405180910390a15050565b606060006107cb83600261124b90919063ffffffff16565b1515610865576040517f08c379a00000000000000000000000000000000000000000000000000000000081526004018080602001828103825260248152602001807f43616e2774206765742061204865726f207468617420646f65736e277420657881526020017f6973742e0000000000000000000000000000000000000000000000000000000081525060400191505060405180910390fd5b6000600460008573ffffffffffffffffffffffffffffffffffffffff1673ffffffffffffffffffffffffffffffffffffffff1681526020019081526020016000209050806000018160010154818054600181600116156101000203166002900480601f0160208091040260200160405190810160405280929190818152602001828054600181600116156101000203166002900480156109465780601f1061091b57610100808354040283529160200191610946565b820191906000526020600020905b81548152906001019060200180831161092957829003601f168201915b505050505091509250925050915091565b6000809054906101000a900473ffffffffffffffffffffffffffffffffffffffff1673ffffffffffffffffffffffffffffffffffffffff163373ffffffffffffffffffffffffffffffffffffffff161415156109b257600080fd5b6109c681600261131990919063ffffffff16565b600460008273ffffffffffffffffffffffffffffffffffffffff1673ffffffffffffffffffffffffffffffffffffffff16815260200190815260200160002060008082016000610a169190611780565b6001820160009055600282016000905560038201600090556004820160009055600582016000905550507f9f71c5e5d725d2859346aaf6582aef0855cedad57acdca9b7167b697031c25c781604051808273ffffffffffffffffffffffffffffffffffffffff1673ffffffffffffffffffffffffffffffffffffffff16815260200191505060405180910390a150565b6000610ab26002611551565b905090565b6004602052806000526040600020600091509050806000018054600181600116156101000203166002900480601f016020809104026020016040519081016040528092919081815260200182805460018160011615610100020316600290048015610b635780601f10610b3857610100808354040283529160200191610b63565b820191906000526020600020905b815481529060010190602001808311610b4657829003601f168201915b5050505050908060010154908060020154908060030154908060040154908060050154905086565b80828486010101670de0b6b3a764000034811515610ba557fe5b0410151515610c42576040517f08c379a00000000000000000000000000000000000000000000000000000000081526004018080602001828103825260368152602001807f496e73756666696369656e74206d73672076616c756520666f7220746865206381526020017f686f73656e206368617261637465726973746963732e0000000000000000000081525060400191505060405180910390fd5b610c5633600261156290919063ffffffff16565b6000600460003373ffffffffffffffffffffffffffffffffffffffff1673ffffffffffffffffffffffffffffffffffffffff168152602001908152602001600020905085816000019080519060200190610cb1929190611700565b50438160010181905550600073__Util__________________________________637ae2b5c76008886040518363ffffffff167c0100000000000000000000000000000000000000000000000000000000028152600401808381526020018281526020019250505060206040518083038186803b158015610d3157600080fd5b505af4158015610d45573d6000803e3d6000fd5b505050506040513d6020811015610d5b57600080fd5b81019080805190602001909291905050506007019050600073__Util__________________________________637ae2b5c76008886040518363ffffffff167c0100000000000000000000000000000000000000000000000000000000028152600401808381526020018281526020019250505060206040518083038186803b158015610de757600080fd5b505af4158015610dfb573d6000803e3d6000fd5b505050506040513d6020811015610e1157600080fd5b81019080805190602001909291905050506007019050600073__Util__________________________________637ae2b5c76008886040518363ffffffff167c0100000000000000000000000000000000000000000000000000000000028152600401808381526020018281526020019250505060206040518083038186803b158015610e9d57600080fd5b505af4158015610eb1573d6000803e3d6000fd5b505050506040513d6020811015610ec757600080fd5b81019080805190602001909291905050506007019050600073__Util__________________________________637ae2b5c76008886040518363ffffffff167c0100000000000000000000000000000000000000000000000000000000028152600401808381526020018281526020019250505060206040518083038186803b158015610f5357600080fd5b505af4158015610f67573d6000803e3d6000fd5b505050506040513d6020811015610f7d57600080fd5b810190808051906020019092919050505060070190508385600201819055508285600301819055508185600401819055508085600501819055507f689ea9b12bda24a5412d3c550b3ba87bcd610e630b13b8a56f784fa01f0ff4163386600001876001015488600201548960030154604051808673ffffffffffffffffffffffffffffffffffffffff1673ffffffffffffffffffffffffffffffffffffffff168152602001806020018581526020018481526020018381526020018281038252868181546001816001161561010002031660029004815260200191508054600181600116156101000203166002900480156110b95780601f1061108e576101008083540402835291602001916110b9565b820191906000526020600020905b81548152906001019060200180831161109c57829003601f168201915b5050965050505050505060405180910390a150505050505050505050565b600160009054906101000a900473ffffffffffffffffffffffffffffffffffffffff1681565b60006111138260026116ba90919063ffffffff16565b9050919050565b6000809054906101000a900473ffffffffffffffffffffffffffffffffffffffff1673ffffffffffffffffffffffffffffffffffffffff163373ffffffffffffffffffffffffffffffffffffffff1614151561117557600080fd5b600073ffffffffffffffffffffffffffffffffffffffff168173ffffffffffffffffffffffffffffffffffffffff16141515156111b157600080fd5b7f1f8d7d25344642d919d55999e4664aa452a5f424bc0936ceb9c2b300db7dcbd93382604051808373ffffffffffffffffffffffffffffffffffffffff1673ffffffffffffffffffffffffffffffffffffffff1681526020018273ffffffffffffffffffffffffffffffffffffffff1673ffffffffffffffffffffffffffffffffffffffff1681526020019250505060405180910390a150565b600080836001018054905014156112655760009050611313565b8173ffffffffffffffffffffffffffffffffffffffff16836001018460000160008573ffffffffffffffffffffffffffffffffffffffff1673ffffffffffffffffffffffffffffffffffffffff168152602001908152602001600020548154811015156112ce57fe5b9060005260206000200160009054906101000a900473ffffffffffffffffffffffffffffffffffffffff1673ffffffffffffffffffffffffffffffffffffffff161490505b92915050565b611323828261124b565b15156113bd576040517f08c379a00000000000000000000000000000000000000000000000000000000081526004018080602001828103825260358152602001807f556e6f7264657265644b65795365742831303229202d204b657920646f65732081526020017f6e6f7420657869737420696e20746865207365742e000000000000000000000081525060400191505060405180910390fd5b60008260010160016113ce85611551565b038154811015156113db57fe5b9060005260206000200160009054906101000a900473ffffffffffffffffffffffffffffffffffffffff16905060008360000160008473ffffffffffffffffffffffffffffffffffffffff1673ffffffffffffffffffffffffffffffffffffffff168152602001908152602001600020549050808460000160008473ffffffffffffffffffffffffffffffffffffffff1673ffffffffffffffffffffffffffffffffffffffff168152602001908152602001600020819055508184600101828154811015156114a657fe5b9060005260206000200160006101000a81548173ffffffffffffffffffffffffffffffffffffffff021916908373ffffffffffffffffffffffffffffffffffffffff1602179055508360000160008473ffffffffffffffffffffffffffffffffffffffff1673ffffffffffffffffffffffffffffffffffffffff168152602001908152602001600020600090558360010180548091906001900361154a91906117c8565b5050505050565b600081600101805490509050919050565b61156c828261124b565b151515611607576040517f08c379a00000000000000000000000000000000000000000000000000000000081526004018080602001828103825260398152602001807f556e6f726465726564416464726573735365742831303129202d204b6579206181526020017f6c72656164792065786973747320696e20746865207365742e0000000000000081525060400191505060405180910390fd5b6001826001018290806001815401808255809150509060018203906000526020600020016000909192909190916101000a81548173ffffffffffffffffffffffffffffffffffffffff021916908373ffffffffffffffffffffffffffffffffffffffff160217905550038260000160008373ffffffffffffffffffffffffffffffffffffffff1673ffffffffffffffffffffffffffffffffffffffff168152602001908152602001600020819055505050565b600082600101828154811015156116cd57fe5b9060005260206000200160009054906101000a900473ffffffffffffffffffffffffffffffffffffffff16905092915050565b828054600181600116156101000203166002900490600052602060002090601f016020900481019282601f1061174157805160ff191683800117855561176f565b8280016001018555821561176f579182015b8281111561176e578251825591602001919060010190611753565b5b50905061177c91906117f4565b5090565b50805460018160011615610100020316600290046000825580601f106117a657506117c5565b601f0160209004906000526020600020908101906117c491906117f4565b5b50565b8154818355818111156117ef578183600052602060002091820191016117ee91906117f4565b5b505050565b61181691905b808211156118125760008160009055506001016117fa565b5090565b9056fea165627a7a72305820d524721a6e6e869b53ae0033cd66da02b6b2f852d05113ba7c8bbfd28951b3fe0029",
  "source": "pragma solidity ^0.5.0;\n\n\nimport \"./Ownable.sol\";\nimport \"./HitchensUnorderedAddressSetLib.sol\";\nimport \"./Util.sol\";\n\ncontract BattlesNBlocks is Ownable {\n  address public owner;\n  using HitchensUnorderedAddressSetLib for HitchensUnorderedAddressSetLib.Set;\n  using Util for *;\n  HitchensUnorderedAddressSetLib.Set heroSet;\n\n  struct Hero {\n    string name;\n    uint position;\n    uint strength;\n    uint dexterity;\n    uint resistance;\n    uint magic;\n    mapping (uint => Item) inventory;\n  }\n\n  struct Item {\n    string name;\n    uint id;\n    address owner;\n  }\n\n  mapping(address => Hero) public heroes;\n    \n  event LogNewHero(address sender, string name, uint position, uint strength, uint dexterity);\n  event LogUpdateHero(address sender, string name,  uint position);    \n  event LogRemHero(address key);\n  \n\n  constructor() public {\n    owner = msg.sender;\n  }\n  \n  \n    \n  function newHero(string memory name, uint strength, uint dexterity,  uint resistance, uint magic) public payable { \n      require(msg.value/1e18 >= (strength + dexterity + resistance + magic), \"Insufficient msg value for the chosen characteristics.\");\n      heroSet.insert(msg.sender); // Note that this will fail automatically if the key already exists.\n      Hero storage h = heroes[msg.sender];\n      h.name = name;\n      h.position = block.number;\n      uint str = 7 + Util.min(8, strength);\n      uint dex = 7 + Util.min(8, dexterity);\n      uint res = 7 + Util.min(8, resistance);\n      uint mag = 7 + Util.min(8, magic);\n      h.strength = str;\n      h.dexterity = dex;\n      h.resistance = res;\n      h.magic = mag;\n      emit LogNewHero(msg.sender, h.name, h.position, h.strength, h.dexterity);\n  }\n  \n  function updateHero(string memory name) public {\n      require(heroSet.exists(msg.sender), \"Can't update a Hero that doesn't exist.\");\n      Hero storage h = heroes[msg.sender];\n      h.name = name;\n      h.position = block.number;\n      emit LogUpdateHero(msg.sender, h.name, h.position);\n  }\n\n  function _moveHero(address key, uint targetBlock) private {\n      require(heroSet.exists(key), \"Can't move a Hero that doesn't exist.\");\n      Hero storage h = heroes[key];\n      h.position = targetBlock;\n      emit LogUpdateHero(key, h.name, h.position);\n  }\n  \n  function remHero(address key) public onlyOwner {\n      heroSet.remove(key); // Note that this will fail automatically if the key doesn't exist\n      delete heroes[key];\n      emit LogRemHero(key);\n  }\n  \n  function getHero(address key) public view returns(string memory name, uint position) {\n      require(heroSet.exists(key), \"Can't get a Hero that doesn't exist.\");\n      Hero storage h = heroes[key];\n      return(h.name, h.position);\n  }\n  \n  function getHeroCount() public view returns(uint count) {\n      return heroSet.count();\n  }\n  \n  function getHeroAtIndex(uint index) public view returns(address key) {\n      return heroSet.keyAtIndex(index);\n  }\n}\n",
  "sourcePath": "/home/alessandro/Dropbox/dapps/battles-n-blocks/contracts/BattlesNBlocks.sol",
  "compiler": {
    "name": "solc",
    "version": "0.5.1+commit.c8a2cb62.Emscripten.clang"
  },
  "schemaVersion": "3.0.2",
  "updatedAt": "2019-04-01T20:27:43.655Z",
  "devdoc": {
    "methods": {}
  },
  "userdoc": {
    "methods": {}
  }
}