{
  "contractName": "HitchensUnorderedAddressSetLib",
  "abi": [
    {
      "constant": false,
      "inputs": [
        {
          "name": "self",
          "type": "HitchensUnorderedAddressSetLib.Set storage"
        }
      ],
      "name": "nukeSet",
      "outputs": [],
      "payable": false,
      "stateMutability": "nonpayable",
      "type": "function",
      "signature": "0x6c4228b1"
    }
  ],
  "bytecode": "0x61010a610030600b82828239805160001a6073146000811461002057610022565bfe5b5030600052607381538281f3fe73000000000000000000000000000000000000000030146080604052600436106050576000357c0100000000000000000000000000000000000000000000000000000000900480636c4228b1146055575b600080fd5b818015606057600080fd5b50608a60048036036020811015607557600080fd5b8101908080359060200190929190505050608c565b005b806001016000609a9190609d565b50565b508054600082559060005260206000209081019060b9919060bc565b50565b60db91905b8082111560d757600081600090555060010160c1565b5090565b9056fea165627a7a723058204f988344439922c6f92fbf46f28a90b7d94b6aa92afb3ac62adbad8a9d9517b40029",
  "source": "pragma solidity 0.5.1; \n\n/* \nHitchens UnorderedAddressSet v0.92\n\nLibrary for managing CRUD operations in dynamic address sets.\n\nhttps://github.com/rob-Hitchens/UnorderedKeySet\n\nCopyright (c), 2019, Rob Hitchens, the MIT License\n\nPermission is hereby granted, free of charge, to any person obtaining a copy\nof this software and associated documentation files (the \"Software\"), to deal\nin the Software without restriction, including without limitation the rights\nto use, copy, modify, merge, publish, distribute, sublicense, and/or sell\ncopies of the Software, and to permit persons to whom the Software is\nfurnished to do so, subject to the following conditions:\n\nThe above copyright notice and this permission notice shall be included in all\ncopies or substantial portions of the Software.\n\nTHE SOFTWARE IS PROVIDED \"AS IS\", WITHOUT WARRANTY OF ANY KIND, EXPRESSED OR\nIMPLIED, INCLUDING BUT NOT LIMITED TO THE WARRANTIES OF MERCHANTABILITY,\nFITNESS FOR A PARTICULAR PURPOSE AND NONINFRINGEMENT. IN NO EVENT SHALL THE\nAUTHORS OR COPYRIGHT HOLDERS BE LIABLE FOR ANY CLAIM, DAMAGES OR OTHER\nLIABILITY, WHETHER IN AN ACTION OF CONTRACT, TORT OR OTHERWISE, ARISING FROM,\nOUT OF OR IN CONNECTION WITH THE SOFTWARE OR THE USE OR OTHER DEALINGS IN THE\nSOFTWARE.\n\nTHIS SOFTWARE IS NOT TESTED OR AUDITED. DO NOT USE FOR PRODUCTION.\n*/\n\nimport \"./Ownable.sol\";\n\nlibrary HitchensUnorderedAddressSetLib {\n    \n    struct Set {\n        mapping(address => uint) keyPointers;\n        address[] keyList;\n    }\n    \n    function insert(Set storage self, address key) internal {\n        require(!exists(self, key), \"UnorderedAddressSet(101) - Key already exists in the set.\");\n        self.keyPointers[key] = self.keyList.push(key)-1;\n    }\n    \n    function remove(Set storage self, address key) internal {\n        require(exists(self, key), \"UnorderedKeySet(102) - Key does not exist in the set.\");\n        address keyToMove = self.keyList[count(self)-1];\n        uint rowToReplace = self.keyPointers[key];\n        self.keyPointers[keyToMove] = rowToReplace;\n        self.keyList[rowToReplace] = keyToMove;\n        delete self.keyPointers[key];\n        self.keyList.length--;\n    }\n    \n    function count(Set storage self) internal view returns(uint) {\n        return(self.keyList.length);\n    }\n    \n    function exists(Set storage self, address key) internal view returns(bool) {\n        if(self.keyList.length == 0) return false;\n        return self.keyList[self.keyPointers[key]] == key;\n    }\n    \n    function keyAtIndex(Set storage self, uint index) internal view returns(address) {\n        return self.keyList[index];\n    }\n    \n    function nukeSet(Set storage self) public {\n        delete self.keyList;\n    }\n}",
  "sourcePath": "/home/alessandro/Dropbox/dapps/battles-n-blocks/contracts/HitchensUnorderedAddressSetLib.sol",
  "compiler": {
    "name": "solc",
    "version": "0.5.1+commit.c8a2cb62.Emscripten.clang"
  },
  "schemaVersion": "3.0.2",
  "updatedAt": "2019-04-01T20:27:00.206Z",
  "devdoc": {
    "methods": {}
  },
  "userdoc": {
    "methods": {}
  }
}