{
  "contractName": "HitchensUnorderedAddressSet",
  "abi": [
    {
      "anonymous": false,
      "inputs": [
        {
          "indexed": false,
          "name": "sender",
          "type": "address"
        },
        {
          "indexed": false,
          "name": "action",
          "type": "string"
        },
        {
          "indexed": false,
          "name": "key",
          "type": "address"
        }
      ],
      "name": "LogUpdate",
      "type": "event"
    },
    {
      "constant": true,
      "inputs": [
        {
          "name": "key",
          "type": "address"
        }
      ],
      "name": "exists",
      "outputs": [
        {
          "name": "",
          "type": "bool"
        }
      ],
      "payable": false,
      "stateMutability": "view",
      "type": "function"
    },
    {
      "constant": false,
      "inputs": [
        {
          "name": "key",
          "type": "address"
        }
      ],
      "name": "insert",
      "outputs": [],
      "payable": false,
      "stateMutability": "nonpayable",
      "type": "function"
    },
    {
      "constant": false,
      "inputs": [
        {
          "name": "key",
          "type": "address"
        }
      ],
      "name": "remove",
      "outputs": [],
      "payable": false,
      "stateMutability": "nonpayable",
      "type": "function"
    },
    {
      "constant": true,
      "inputs": [],
      "name": "count",
      "outputs": [
        {
          "name": "",
          "type": "uint256"
        }
      ],
      "payable": false,
      "stateMutability": "view",
      "type": "function"
    },
    {
      "constant": true,
      "inputs": [
        {
          "name": "index",
          "type": "uint256"
        }
      ],
      "name": "keyAtIndex",
      "outputs": [
        {
          "name": "",
          "type": "address"
        }
      ],
      "payable": false,
      "stateMutability": "view",
      "type": "function"
    },
    {
      "constant": false,
      "inputs": [],
      "name": "nukeSet",
      "outputs": [],
      "payable": false,
      "stateMutability": "nonpayable",
      "type": "function"
    }
  ],
  "bytecode": "0x608060405234801561001057600080fd5b50610a12806100206000396000f3fe608060405260043610610072576000357c01000000000000000000000000000000000000000000000000000000009004806306661abd146100775780630e654c02146100a257806329092d0e146100b95780638e0db0d91461010a578063bc902ad214610185578063f6a3d24e146101d6575b600080fd5b34801561008357600080fd5b5061008c61023f565b6040518082815260200191505060405180910390f35b3480156100ae57600080fd5b506100b7610250565b005b3480156100c557600080fd5b50610108600480360360208110156100dc57600080fd5b81019080803573ffffffffffffffffffffffffffffffffffffffff1690602001909291905050506102d8565b005b34801561011657600080fd5b506101436004803603602081101561012d57600080fd5b81019080803590602001909291905050506103bf565b604051808273ffffffffffffffffffffffffffffffffffffffff1673ffffffffffffffffffffffffffffffffffffffff16815260200191505060405180910390f35b34801561019157600080fd5b506101d4600480360360208110156101a857600080fd5b81019080803573ffffffffffffffffffffffffffffffffffffffff1690602001909291905050506103dc565b005b3480156101e257600080fd5b50610225600480360360208110156101f957600080fd5b81019080803573ffffffffffffffffffffffffffffffffffffffff1690602001909291905050506104c3565b604051808215151515815260200191505060405180910390f35b600061024b60006104e0565b905090565b600073__HitchensUnorderedAddressSetLib________636c4228b190916040518263ffffffff167c01000000000000000000000000000000000000000000000000000000000281526004018082815260200191505060006040518083038186803b1580156102be57600080fd5b505af41580156102d2573d6000803e3d6000fd5b50505050565b6102ec8160006104f190919063ffffffff16565b7f3d01af192fd35275c6cda71d5493dfbcf9bbefd751a58467cd47ec250a4b13713382604051808373ffffffffffffffffffffffffffffffffffffffff1673ffffffffffffffffffffffffffffffffffffffff168152602001806020018373ffffffffffffffffffffffffffffffffffffffff1673ffffffffffffffffffffffffffffffffffffffff168152602001828103825260068152602001807f72656d6f76650000000000000000000000000000000000000000000000000000815250602001935050505060405180910390a150565b60006103d582600061072990919063ffffffff16565b9050919050565b6103f081600061076f90919063ffffffff16565b7f3d01af192fd35275c6cda71d5493dfbcf9bbefd751a58467cd47ec250a4b13713382604051808373ffffffffffffffffffffffffffffffffffffffff1673ffffffffffffffffffffffffffffffffffffffff168152602001806020018373ffffffffffffffffffffffffffffffffffffffff1673ffffffffffffffffffffffffffffffffffffffff168152602001828103825260068152602001807f696e736572740000000000000000000000000000000000000000000000000000815250602001935050505060405180910390a150565b60006104d98260006108c790919063ffffffff16565b9050919050565b600081600101805490509050919050565b6104fb82826108c7565b1515610595576040517f08c379a00000000000000000000000000000000000000000000000000000000081526004018080602001828103825260358152602001807f556e6f7264657265644b65795365742831303229202d204b657920646f65732081526020017f6e6f7420657869737420696e20746865207365742e000000000000000000000081525060400191505060405180910390fd5b60008260010160016105a6856104e0565b038154811015156105b357fe5b9060005260206000200160009054906101000a900473ffffffffffffffffffffffffffffffffffffffff16905060008360000160008473ffffffffffffffffffffffffffffffffffffffff1673ffffffffffffffffffffffffffffffffffffffff168152602001908152602001600020549050808460000160008473ffffffffffffffffffffffffffffffffffffffff1673ffffffffffffffffffffffffffffffffffffffff1681526020019081526020016000208190555081846001018281548110151561067e57fe5b9060005260206000200160006101000a81548173ffffffffffffffffffffffffffffffffffffffff021916908373ffffffffffffffffffffffffffffffffffffffff1602179055508360000160008473ffffffffffffffffffffffffffffffffffffffff1673ffffffffffffffffffffffffffffffffffffffff16815260200190815260200160002060009055836001018054809190600190036107229190610995565b5050505050565b6000826001018281548110151561073c57fe5b9060005260206000200160009054906101000a900473ffffffffffffffffffffffffffffffffffffffff16905092915050565b61077982826108c7565b151515610814576040517f08c379a00000000000000000000000000000000000000000000000000000000081526004018080602001828103825260398152602001807f556e6f726465726564416464726573735365742831303129202d204b6579206181526020017f6c72656164792065786973747320696e20746865207365742e0000000000000081525060400191505060405180910390fd5b6001826001018290806001815401808255809150509060018203906000526020600020016000909192909190916101000a81548173ffffffffffffffffffffffffffffffffffffffff021916908373ffffffffffffffffffffffffffffffffffffffff160217905550038260000160008373ffffffffffffffffffffffffffffffffffffffff1673ffffffffffffffffffffffffffffffffffffffff168152602001908152602001600020819055505050565b600080836001018054905014156108e1576000905061098f565b8173ffffffffffffffffffffffffffffffffffffffff16836001018460000160008573ffffffffffffffffffffffffffffffffffffffff1673ffffffffffffffffffffffffffffffffffffffff1681526020019081526020016000205481548110151561094a57fe5b9060005260206000200160009054906101000a900473ffffffffffffffffffffffffffffffffffffffff1673ffffffffffffffffffffffffffffffffffffffff161490505b92915050565b8154818355818111156109bc578183600052602060002091820191016109bb91906109c1565b5b505050565b6109e391905b808211156109df5760008160009055506001016109c7565b5090565b9056fea165627a7a72305820f6b488c7abde4df3a0b9eec7b9631fecba35093752b9fba99b027898c29e3fb80029",
  "source": "pragma solidity 0.5.1; \n\n/* \nHitchens UnorderedAddressSet v0.92\n\nLibrary for managing CRUD operations in dynamic address sets.\n\nhttps://github.com/rob-Hitchens/UnorderedKeySet\n\nCopyright (c), 2019, Rob Hitchens, the MIT License\n\nPermission is hereby granted, free of charge, to any person obtaining a copy\nof this software and associated documentation files (the \"Software\"), to deal\nin the Software without restriction, including without limitation the rights\nto use, copy, modify, merge, publish, distribute, sublicense, and/or sell\ncopies of the Software, and to permit persons to whom the Software is\nfurnished to do so, subject to the following conditions:\n\nThe above copyright notice and this permission notice shall be included in all\ncopies or substantial portions of the Software.\n\nTHE SOFTWARE IS PROVIDED \"AS IS\", WITHOUT WARRANTY OF ANY KIND, EXPRESSED OR\nIMPLIED, INCLUDING BUT NOT LIMITED TO THE WARRANTIES OF MERCHANTABILITY,\nFITNESS FOR A PARTICULAR PURPOSE AND NONINFRINGEMENT. IN NO EVENT SHALL THE\nAUTHORS OR COPYRIGHT HOLDERS BE LIABLE FOR ANY CLAIM, DAMAGES OR OTHER\nLIABILITY, WHETHER IN AN ACTION OF CONTRACT, TORT OR OTHERWISE, ARISING FROM,\nOUT OF OR IN CONNECTION WITH THE SOFTWARE OR THE USE OR OTHER DEALINGS IN THE\nSOFTWARE.\n\nTHIS SOFTWARE IS NOT TESTED OR AUDITED. DO NOT USE FOR PRODUCTION.\n*/\n\nimport \"./Ownable.sol\";\nimport \"./HitchensUnorderedAddressSetLib.sol\";\n\ncontract HitchensUnorderedAddressSet {\n    \n    using HitchensUnorderedAddressSetLib for HitchensUnorderedAddressSetLib.Set;\n    HitchensUnorderedAddressSetLib.Set set;\n    \n    event LogUpdate(address sender, string action, address key);\n    \n    function exists(address key) public view returns(bool) {\n        return set.exists(key);\n    }\n    \n    function insert(address key) public {\n        set.insert(key);\n        emit LogUpdate(msg.sender, \"insert\", key);\n    }\n    \n    function remove(address key) public {\n        set.remove(key);\n        emit LogUpdate(msg.sender, \"remove\", key);\n    }\n    \n    function count() public view returns(uint) {\n        return set.count();\n    }\n    \n    function keyAtIndex(uint index) public view returns(address) {\n        return set.keyAtIndex(index);\n    }\n    \n    function nukeSet() public {\n        set.nukeSet();\n    }\n}\n",
  "sourcePath": "/home/alessandro/Dropbox/dapps/battles-n-blocks/contracts/HitchensUnorderedAddressSet.sol",
  "compiler": {
    "name": "solc",
    "version": "0.5.1+commit.c8a2cb62.Emscripten.clang"
  },
  "schemaVersion": "3.0.2",
  "updatedAt": "2019-04-01T20:25:58.678Z",
  "devdoc": {
    "methods": {}
  },
  "userdoc": {
    "methods": {}
  }
}