{
  "contractName": "Ownable",
  "abi": [
    {
      "constant": true,
      "inputs": [],
      "name": "owner",
      "outputs": [
        {
          "name": "",
          "type": "address"
        }
      ],
      "payable": false,
      "stateMutability": "view",
      "type": "function",
      "signature": "0x8da5cb5b"
    },
    {
      "inputs": [],
      "payable": false,
      "stateMutability": "nonpayable",
      "type": "constructor",
      "signature": "constructor"
    },
    {
      "anonymous": false,
      "inputs": [
        {
          "indexed": false,
          "name": "sender",
          "type": "address"
        },
        {
          "indexed": false,
          "name": "newOwner",
          "type": "address"
        }
      ],
      "name": "LogNewOwner",
      "type": "event",
      "signature": "0x1f8d7d25344642d919d55999e4664aa452a5f424bc0936ceb9c2b300db7dcbd9"
    },
    {
      "constant": false,
      "inputs": [
        {
          "name": "newOwner",
          "type": "address"
        }
      ],
      "name": "changeOwner",
      "outputs": [],
      "payable": false,
      "stateMutability": "nonpayable",
      "type": "function",
      "signature": "0xa6f9dae1"
    }
  ],
  "bytecode": "0x608060405234801561001057600080fd5b50336000806101000a81548173ffffffffffffffffffffffffffffffffffffffff021916908373ffffffffffffffffffffffffffffffffffffffff160217905550610275806100606000396000f3fe608060405260043610610046576000357c0100000000000000000000000000000000000000000000000000000000900480638da5cb5b1461004b578063a6f9dae1146100a2575b600080fd5b34801561005757600080fd5b506100606100f3565b604051808273ffffffffffffffffffffffffffffffffffffffff1673ffffffffffffffffffffffffffffffffffffffff16815260200191505060405180910390f35b3480156100ae57600080fd5b506100f1600480360360208110156100c557600080fd5b81019080803573ffffffffffffffffffffffffffffffffffffffff169060200190929190505050610118565b005b6000809054906101000a900473ffffffffffffffffffffffffffffffffffffffff1681565b6000809054906101000a900473ffffffffffffffffffffffffffffffffffffffff1673ffffffffffffffffffffffffffffffffffffffff163373ffffffffffffffffffffffffffffffffffffffff1614151561017357600080fd5b600073ffffffffffffffffffffffffffffffffffffffff168173ffffffffffffffffffffffffffffffffffffffff16141515156101af57600080fd5b7f1f8d7d25344642d919d55999e4664aa452a5f424bc0936ceb9c2b300db7dcbd93382604051808373ffffffffffffffffffffffffffffffffffffffff1673ffffffffffffffffffffffffffffffffffffffff1681526020018273ffffffffffffffffffffffffffffffffffffffff1673ffffffffffffffffffffffffffffffffffffffff1681526020019250505060405180910390a15056fea165627a7a72305820ded9c82fa66fec8e3ecf2e49f4b0962c130037524019580d5d97a3d43f374c240029",
  "source": "pragma solidity 0.5.1;\n\n/// @dev Stub for access control.\n\ncontract Ownable {\n    \n    address public owner;\n    \n    modifier onlyOwner {\n        require(msg.sender == owner);\n        _;\n    }\n    \n    event LogNewOwner(address sender, address newOwner);\n    \n    constructor() public {\n        owner = msg.sender;\n    }\n    \n    function changeOwner(address newOwner) public onlyOwner {\n        require(newOwner != address(0));\n        emit LogNewOwner(msg.sender, newOwner);\n    }\n}\n",
  "sourcePath": "/home/alessandro/Dropbox/dapps/battles-n-blocks/contracts/Ownable.sol",
  "compiler": {
    "name": "solc",
    "version": "0.5.1+commit.c8a2cb62.Emscripten.clang"
  },
  "schemaVersion": "3.0.2",
  "updatedAt": "2019-04-01T20:27:00.201Z",
  "devdoc": {
    "details": "Stub for access control.",
    "methods": {}
  },
  "userdoc": {
    "methods": {}
  }
}