{
  "contractName": "Util",
  "abi": [
    {
      "constant": true,
      "inputs": [
        {
          "name": "a",
          "type": "address"
        }
      ],
      "name": "addressToBytes32",
      "outputs": [
        {
          "name": "",
          "type": "bytes32"
        }
      ],
      "payable": false,
      "stateMutability": "pure",
      "type": "function",
      "signature": "0x82c947b7"
    },
    {
      "constant": true,
      "inputs": [
        {
          "name": "b",
          "type": "bytes32"
        }
      ],
      "name": "bytes32ToAddress",
      "outputs": [
        {
          "name": "",
          "type": "address"
        }
      ],
      "payable": false,
      "stateMutability": "pure",
      "type": "function",
      "signature": "0x5ced058e"
    },
    {
      "constant": true,
      "inputs": [
        {
          "name": "a",
          "type": "uint256"
        },
        {
          "name": "b",
          "type": "uint256"
        }
      ],
      "name": "max",
      "outputs": [
        {
          "name": "",
          "type": "uint256"
        }
      ],
      "payable": false,
      "stateMutability": "pure",
      "type": "function",
      "signature": "0x6d5433e6"
    },
    {
      "constant": true,
      "inputs": [
        {
          "name": "a",
          "type": "uint256"
        },
        {
          "name": "b",
          "type": "uint256"
        }
      ],
      "name": "min",
      "outputs": [
        {
          "name": "",
          "type": "uint256"
        }
      ],
      "payable": false,
      "stateMutability": "pure",
      "type": "function",
      "signature": "0x7ae2b5c7"
    }
  ],
  "bytecode": "0x610265610030600b82828239805160001a6073146000811461002057610022565bfe5b5030600052607381538281f3fe7300000000000000000000000000000000000000003014608060405260043610610073576000357c0100000000000000000000000000000000000000000000000000000000900480635ced058e146100785780636d5433e6146100e65780637ae2b5c71461013257806382c947b71461017e575b600080fd5b6100a46004803603602081101561008e57600080fd5b81019080803590602001909291905050506101d6565b604051808273ffffffffffffffffffffffffffffffffffffffff1673ffffffffffffffffffffffffffffffffffffffff16815260200191505060405180910390f35b61011c600480360360408110156100fc57600080fd5b8101908080359060200190929190803590602001909291905050506101e4565b6040518082815260200191505060405180910390f35b6101686004803603604081101561014857600080fd5b8101908080359060200190929190803590602001909291905050506101fd565b6040518082815260200191505060405180910390f35b6101c06004803603602081101561019457600080fd5b81019080803573ffffffffffffffffffffffffffffffffffffffff169060200190929190505050610216565b6040518082815260200191505060405180910390f35b600081600190049050919050565b60008183116101f357816101f5565b825b905092915050565b600081831061020c578161020e565b825b905092915050565b60008173ffffffffffffffffffffffffffffffffffffffff16600102905091905056fea165627a7a72305820130352f1e31a087683741620d7597fd64c55b41f6ed1524a8d80f694920122740029",
  "source": "/**\n * The Util provides utility functions\n */\npragma solidity ^0.5.0;\n \nlibrary Util {\n    \n\tfunction addressToBytes32(address a) public pure returns(bytes32) {\n\t  return bytes32(uint(uint160(a)));\n\t}\n\tfunction bytes32ToAddress(bytes32 b) public pure returns(address) {\n\t  return address(uint160(uint(b)));\n\t}\n\n\tfunction max(uint a, uint b) public pure returns (uint) {\n\t        return a > b ? a : b;\n\t    }\n\t    \n\tfunction min(uint a, uint b) public pure returns (uint) {\n\t        return a < b ? a : b;\n\t    }\t\n}\n\n\n",
  "sourcePath": "/home/alessandro/Dropbox/dapps/battles-n-blocks/contracts/Util.sol",
  "compiler": {
    "name": "solc",
    "version": "0.5.1+commit.c8a2cb62.Emscripten.clang"
  },
  "schemaVersion": "3.0.2",
  "updatedAt": "2019-04-01T20:27:00.203Z",
  "devdoc": {
    "methods": {}
  },
  "userdoc": {
    "methods": {}
  }
}