{
  "contractName": "Widget",
  "abi": [
    {
      "anonymous": false,
      "inputs": [
        {
          "indexed": false,
          "name": "sender",
          "type": "address"
        },
        {
          "indexed": false,
          "name": "key",
          "type": "address"
        },
        {
          "indexed": false,
          "name": "name",
          "type": "string"
        },
        {
          "indexed": false,
          "name": "delux",
          "type": "bool"
        },
        {
          "indexed": false,
          "name": "price",
          "type": "uint256"
        }
      ],
      "name": "LogNewWidget",
      "type": "event"
    },
    {
      "anonymous": false,
      "inputs": [
        {
          "indexed": false,
          "name": "sender",
          "type": "address"
        },
        {
          "indexed": false,
          "name": "key",
          "type": "address"
        },
        {
          "indexed": false,
          "name": "name",
          "type": "string"
        },
        {
          "indexed": false,
          "name": "delux",
          "type": "bool"
        },
        {
          "indexed": false,
          "name": "price",
          "type": "uint256"
        }
      ],
      "name": "LogUpdateWidget",
      "type": "event"
    },
    {
      "anonymous": false,
      "inputs": [
        {
          "indexed": false,
          "name": "sender",
          "type": "address"
        },
        {
          "indexed": false,
          "name": "key",
          "type": "address"
        }
      ],
      "name": "LogRemWidget",
      "type": "event"
    },
    {
      "constant": false,
      "inputs": [
        {
          "name": "key",
          "type": "address"
        },
        {
          "name": "name",
          "type": "string"
        },
        {
          "name": "delux",
          "type": "bool"
        },
        {
          "name": "price",
          "type": "uint256"
        }
      ],
      "name": "newWidget",
      "outputs": [],
      "payable": false,
      "stateMutability": "nonpayable",
      "type": "function"
    },
    {
      "constant": false,
      "inputs": [
        {
          "name": "key",
          "type": "address"
        },
        {
          "name": "name",
          "type": "string"
        },
        {
          "name": "delux",
          "type": "bool"
        },
        {
          "name": "price",
          "type": "uint256"
        }
      ],
      "name": "updateWidget",
      "outputs": [],
      "payable": false,
      "stateMutability": "nonpayable",
      "type": "function"
    },
    {
      "constant": false,
      "inputs": [
        {
          "name": "key",
          "type": "address"
        }
      ],
      "name": "remWidget",
      "outputs": [],
      "payable": false,
      "stateMutability": "nonpayable",
      "type": "function"
    },
    {
      "constant": true,
      "inputs": [
        {
          "name": "key",
          "type": "address"
        }
      ],
      "name": "getWidget",
      "outputs": [
        {
          "name": "name",
          "type": "string"
        },
        {
          "name": "delux",
          "type": "bool"
        },
        {
          "name": "price",
          "type": "uint256"
        }
      ],
      "payable": false,
      "stateMutability": "view",
      "type": "function"
    },
    {
      "constant": true,
      "inputs": [],
      "name": "getWidgetCount",
      "outputs": [
        {
          "name": "count",
          "type": "uint256"
        }
      ],
      "payable": false,
      "stateMutability": "view",
      "type": "function"
    },
    {
      "constant": true,
      "inputs": [
        {
          "name": "index",
          "type": "uint256"
        }
      ],
      "name": "getWidgetAtIndex",
      "outputs": [
        {
          "name": "key",
          "type": "address"
        }
      ],
      "payable": false,
      "stateMutability": "view",
      "type": "function"
    }
  ],
  "bytecode": "0x608060405234801561001057600080fd5b50611147806100206000396000f3fe608060405260043610610072576000357c0100000000000000000000000000000000000000000000000000000000900480630d4547771461007757806325dbd379146100a2578063508716311461011d578063631584591461021b57806397f9ae841461026c578063c93478b214610348575b600080fd5b34801561008357600080fd5b5061008c610446565b6040518082815260200191505060405180910390f35b3480156100ae57600080fd5b506100db600480360360208110156100c557600080fd5b8101908080359060200190929190505050610457565b604051808273ffffffffffffffffffffffffffffffffffffffff1673ffffffffffffffffffffffffffffffffffffffff16815260200191505060405180910390f35b34801561012957600080fd5b506102196004803603608081101561014057600080fd5b81019080803573ffffffffffffffffffffffffffffffffffffffff1690602001909291908035906020019064010000000081111561017d57600080fd5b82018360208201111561018f57600080fd5b803590602001918460018302840111640100000000831117156101b157600080fd5b91908080601f016020809104026020016040519081016040528093929190818152602001838380828437600081840152601f19601f82011690508083019250505050505050919291929080351515906020019092919080359060200190929190505050610474565b005b34801561022757600080fd5b5061026a6004803603602081101561023e57600080fd5b81019080803573ffffffffffffffffffffffffffffffffffffffff1690602001909291905050506106c2565b005b34801561027857600080fd5b506102bb6004803603602081101561028f57600080fd5b81019080803573ffffffffffffffffffffffffffffffffffffffff1690602001909291905050506107de565b604051808060200184151515158152602001838152602001828103825285818151815260200191508051906020019080838360005b8381101561030b5780820151818401526020810190506102f0565b50505050905090810190601f1680156103385780820380516001836020036101000a031916815260200191505b5094505050505060405180910390f35b34801561035457600080fd5b506104446004803603608081101561036b57600080fd5b81019080803573ffffffffffffffffffffffffffffffffffffffff169060200190929190803590602001906401000000008111156103a857600080fd5b8201836020820111156103ba57600080fd5b803590602001918460018302840111640100000000831117156103dc57600080fd5b91908080601f016020809104026020016040519081016040528093929190818152602001838380828437600081840152601f19601f82011690508083019250505050505050919291929080351515906020019092919080359060200190929190505050610999565b005b60006104526000610b4d565b905090565b600061046d826000610b5e90919063ffffffff16565b9050919050565b610488846000610ba490919063ffffffff16565b1515610522576040517f08c379a00000000000000000000000000000000000000000000000000000000081526004018080602001828103825260298152602001807f43616e277420757064617465206120776964676574207468617420646f65736e81526020017f27742065786973742e000000000000000000000000000000000000000000000081525060400191505060405180910390fd5b6000600260008673ffffffffffffffffffffffffffffffffffffffff1673ffffffffffffffffffffffffffffffffffffffff16815260200190815260200160002090508381600001908051906020019061057d929190611002565b50828160010160006101000a81548160ff0219169083151502179055508181600201819055507f0ce18fae7bb892f89d842a2af292280422653df40c21555325a6127f558f94073386868686604051808673ffffffffffffffffffffffffffffffffffffffff1673ffffffffffffffffffffffffffffffffffffffff1681526020018573ffffffffffffffffffffffffffffffffffffffff1673ffffffffffffffffffffffffffffffffffffffff1681526020018060200184151515158152602001838152602001828103825285818151815260200191508051906020019080838360005b8381101561067d578082015181840152602081019050610662565b50505050905090810190601f1680156106aa5780820380516001836020036101000a031916815260200191505b50965050505050505060405180910390a15050505050565b6106d6816000610c7290919063ffffffff16565b600260008273ffffffffffffffffffffffffffffffffffffffff1673ffffffffffffffffffffffffffffffffffffffff168152602001908152602001600020600080820160006107269190611082565b6001820160006101000a81549060ff0219169055600282016000905550507f51fe883e7422b84995b071976c0d16fa9c3b031124637f6068042d3463a17d9a3382604051808373ffffffffffffffffffffffffffffffffffffffff1673ffffffffffffffffffffffffffffffffffffffff1681526020018273ffffffffffffffffffffffffffffffffffffffff1673ffffffffffffffffffffffffffffffffffffffff1681526020019250505060405180910390a150565b60606000806107f7846000610ba490919063ffffffff16565b1515610891576040517f08c379a00000000000000000000000000000000000000000000000000000000081526004018080602001828103825260268152602001807f43616e277420676574206120776964676574207468617420646f65736e27742081526020017f65786973742e000000000000000000000000000000000000000000000000000081525060400191505060405180910390fd5b6000600260008673ffffffffffffffffffffffffffffffffffffffff1673ffffffffffffffffffffffffffffffffffffffff1681526020019081526020016000209050806000018160010160009054906101000a900460ff168260020154828054600181600116156101000203166002900480601f0160208091040260200160405190810160405280929190818152602001828054600181600116156101000203166002900480156109845780601f1061095957610100808354040283529160200191610984565b820191906000526020600020905b81548152906001019060200180831161096757829003601f168201915b50505050509250935093509350509193909250565b6109ad846000610eaa90919063ffffffff16565b6000600260008673ffffffffffffffffffffffffffffffffffffffff1673ffffffffffffffffffffffffffffffffffffffff168152602001908152602001600020905083816000019080519060200190610a08929190611002565b50828160010160006101000a81548160ff0219169083151502179055508181600201819055507f9d054b68f3b51d515e062fd1148785e40ea97a7aeec9fa0c2a5b13ec691db23a3386868686604051808673ffffffffffffffffffffffffffffffffffffffff1673ffffffffffffffffffffffffffffffffffffffff1681526020018573ffffffffffffffffffffffffffffffffffffffff1673ffffffffffffffffffffffffffffffffffffffff1681526020018060200184151515158152602001838152602001828103825285818151815260200191508051906020019080838360005b83811015610b08578082015181840152602081019050610aed565b50505050905090810190601f168015610b355780820380516001836020036101000a031916815260200191505b50965050505050505060405180910390a15050505050565b600081600101805490509050919050565b60008260010182815481101515610b7157fe5b9060005260206000200160009054906101000a900473ffffffffffffffffffffffffffffffffffffffff16905092915050565b60008083600101805490501415610bbe5760009050610c6c565b8173ffffffffffffffffffffffffffffffffffffffff16836001018460000160008573ffffffffffffffffffffffffffffffffffffffff1673ffffffffffffffffffffffffffffffffffffffff16815260200190815260200160002054815481101515610c2757fe5b9060005260206000200160009054906101000a900473ffffffffffffffffffffffffffffffffffffffff1673ffffffffffffffffffffffffffffffffffffffff161490505b92915050565b610c7c8282610ba4565b1515610d16576040517f08c379a00000000000000000000000000000000000000000000000000000000081526004018080602001828103825260358152602001807f556e6f7264657265644b65795365742831303229202d204b657920646f65732081526020017f6e6f7420657869737420696e20746865207365742e000000000000000000000081525060400191505060405180910390fd5b6000826001016001610d2785610b4d565b03815481101515610d3457fe5b9060005260206000200160009054906101000a900473ffffffffffffffffffffffffffffffffffffffff16905060008360000160008473ffffffffffffffffffffffffffffffffffffffff1673ffffffffffffffffffffffffffffffffffffffff168152602001908152602001600020549050808460000160008473ffffffffffffffffffffffffffffffffffffffff1673ffffffffffffffffffffffffffffffffffffffff16815260200190815260200160002081905550818460010182815481101515610dff57fe5b9060005260206000200160006101000a81548173ffffffffffffffffffffffffffffffffffffffff021916908373ffffffffffffffffffffffffffffffffffffffff1602179055508360000160008473ffffffffffffffffffffffffffffffffffffffff1673ffffffffffffffffffffffffffffffffffffffff1681526020019081526020016000206000905583600101805480919060019003610ea391906110ca565b5050505050565b610eb48282610ba4565b151515610f4f576040517f08c379a00000000000000000000000000000000000000000000000000000000081526004018080602001828103825260398152602001807f556e6f726465726564416464726573735365742831303129202d204b6579206181526020017f6c72656164792065786973747320696e20746865207365742e0000000000000081525060400191505060405180910390fd5b6001826001018290806001815401808255809150509060018203906000526020600020016000909192909190916101000a81548173ffffffffffffffffffffffffffffffffffffffff021916908373ffffffffffffffffffffffffffffffffffffffff160217905550038260000160008373ffffffffffffffffffffffffffffffffffffffff1673ffffffffffffffffffffffffffffffffffffffff168152602001908152602001600020819055505050565b828054600181600116156101000203166002900490600052602060002090601f016020900481019282601f1061104357805160ff1916838001178555611071565b82800160010185558215611071579182015b82811115611070578251825591602001919060010190611055565b5b50905061107e91906110f6565b5090565b50805460018160011615610100020316600290046000825580601f106110a857506110c7565b601f0160209004906000526020600020908101906110c691906110f6565b5b50565b8154818355818111156110f1578183600052602060002091820191016110f091906110f6565b5b505050565b61111891905b808211156111145760008160009055506001016110fc565b5090565b9056fea165627a7a72305820be8bd2858a1cfde4b74f83b0dab810b2136a388772a504a3107de0e1d6328f9b0029",
  "source": "pragma solidity 0.5.1;\n\nimport \"./HitchensUnorderedAddressSet.sol\";\n\ncontract Widget {\n    \n    using HitchensUnorderedAddressSetLib for HitchensUnorderedAddressSetLib.Set;\n    HitchensUnorderedAddressSetLib.Set widgetSet;\n    \n    struct WidgetStruct {\n        string name;\n        bool delux;\n        uint price;\n    }\n    \n    mapping(address => WidgetStruct) widgets;\n    \n    event LogNewWidget(address sender, address key, string name, bool delux, uint price);\n    event LogUpdateWidget(address sender, address key, string name, bool delux, uint price);    \n    event LogRemWidget(address sender, address key);\n    \n    function newWidget(address key, string memory name, bool delux, uint price) public { \n        widgetSet.insert(key); // Note that this will fail automatically if the key already exists.\n        WidgetStruct storage w = widgets[key];\n        w.name = name;\n        w.delux = delux;\n        w.price = price;\n        emit LogNewWidget(msg.sender, key, name, delux, price);\n    }\n    \n    function updateWidget(address key, string memory name, bool delux, uint price) public {\n        require(widgetSet.exists(key), \"Can't update a widget that doesn't exist.\");\n        WidgetStruct storage w = widgets[key];\n        w.name = name;\n        w.delux = delux;\n        w.price = price;\n        emit LogUpdateWidget(msg.sender, key, name, delux, price);\n    }\n    \n    function remWidget(address key) public {\n        widgetSet.remove(key); // Note that this will fail automatically if the key doesn't exist\n        delete widgets[key];\n        emit LogRemWidget(msg.sender, key);\n    }\n    \n    function getWidget(address key) public view returns(string memory name, bool delux, uint price) {\n        require(widgetSet.exists(key), \"Can't get a widget that doesn't exist.\");\n        WidgetStruct storage w = widgets[key];\n        return(w.name, w.delux, w.price);\n    }\n    \n    function getWidgetCount() public view returns(uint count) {\n        return widgetSet.count();\n    }\n    \n    function getWidgetAtIndex(uint index) public view returns(address key) {\n        return widgetSet.keyAtIndex(index);\n    }\n}\n",
  "sourcePath": "/home/alessandro/Dropbox/dapps/battles-n-blocks/contracts/exampleWidgetAddressSet.sol",
  "compiler": {
    "name": "solc",
    "version": "0.5.1+commit.c8a2cb62.Emscripten.clang"
  },
  "schemaVersion": "3.0.2",
  "updatedAt": "2019-04-01T20:46:31.853Z",
  "devdoc": {
    "methods": {}
  },
  "userdoc": {
    "methods": {}
  }
}